:020000040800F2
:1000000010080020D50100085D150008B50D000896
:1000100059150008B507000817280008000000005F
:10002000000000000000000000000000E11C0008CB
:10003000B907000800000000451B00083D1E00082D
:10004000EF010008EF010008EF010008EF010008D0
:10005000EF010008EF010008EF010008EF010008C0
:10006000EF010008EF010008EF010008EF010008B0
:10007000EF010008EF010008EF010008EF010008A0
:10008000EF010008EF010008EF010008EF01000890
:10009000EF010008EF010008EF0100083108000837
:1000A000EF010008E1200008EF010008EF0100085F
:1000B000FD200008EF010008EF010008EF01000833
:1000C000EF010008EF010008EF010008EF01000850
:1000D000EF010008EF010008EF0100086D2500089E
:1000E000BD070008EF010008EF010008EF0100085C
:1000F000EF010008EF010008EF010008EF01000820
:10010000EF010008EF010008EF010008EF0100080F
:10011000EF010008EF010008EF010008EF010008FF
:10012000EF010008EF010008EF010008EF010008EF
:1001300000F002F800F03FF80AA090E8000C8244BA
:100140008344AAF10107DA4501D100F034F8AFF297
:10015000090EBAE80F0013F0010F18BFFB1A43F0A5
:10016000010318470C7600002C760000103A24BFDB
:1001700078C878C1FAD8520724BF30C830C144BF0C
:1001800004680C607047000000230024002500264E
:10019000103A28BF78C1FBD8520728BF30C148BFEA
:1001A0000B607047642900F04380002070471FB542
:1001B0001FBD10B510BD00F02FFA1146FFF7F7FF75
:1001C00003F092FD00F04DFA03B4FFF7F2FF03BC19
:1001D00002F09DFC0948804709480047FEE7FEE71A
:1001E000FEE7FEE7FEE7FEE7FEE7FEE7FEE7FEE7E7
:1001F00004480549054A064B70470000411E0008A7
:100200003101000810020020100800201004002016
:1002100010040020704700000FB4044910B503AA71
:10022000029800F079F910BC5DF814FB540000202E
:100230002DE9F0410646002410687529314616A5BF
:1002400010D0AFF30080002802DA404213A507E087
:1002500031688A0701D512A502E0490704D511A526
:10026000012401E0AFF3008000210A2206F12407F7
:1002700009E0B0FBF2FCB0FBF2F302FB1C003030F3
:1002800078541846491C0028F3D123462A463046A4
:10029000BDE8F04100F0E7B8000000002D000000CC
:1002A0002B000000200000002DE9F05F8946044685
:1002B0004FF0000ADFF824B1FB44C0F820A020462C
:1002C000E168884700287DD0252806D0D4E901219F
:1002D0009047206A401C2062F1E700255F462046D7
:1002E000E16888472028064607DB312E05D2B81979
:1002F00010F8200C08B10543F1E7A80701D525F057
:100300000405C4F81CA00027C4F818A02A2E09D0A0
:10031000304602F0F5FB38B304EB8708303EC8F8EE
:10032000186019E059F8041B204604EB870291611C
:10033000E1688847012F064618D1E069002820DAD5
:1003400025F020051DE0D8F8180000EB800006EB32
:1003500040003038C8F818002046E1688847064653
:1003600002F0CEFB0028EED1012F0AD02E2E08D1AC
:100370002046E16888477F1C0646022F45F020058D
:10038000C4DBA069002803DA404245F00105A06102
:10039000E80701D025F01005A6B1A6F14100192803
:1003A00002D8203645F400654A463146204625608D
:1003B0004D46FFF7F7FE60B1012807D0ED1D25F08F
:1003C000070000E007E000F1080978E705F10409FB
:1003D00075E730467AE7206ABDE8F09F5E7300005B
:1003E00040EA010310B59B070FD1042A0DD310C8B2
:1003F00008C9121F9C42F8D020BA19BA884201D904
:10040000012010BD4FF0FF3010BD1AB1D30703D04B
:10041000521C07E0002010BD10F8013B11F8014B01
:100420001B1B07D110F8013B11F8014B1B1B01D11D
:10043000921EF1D1184610BD02F0FF0343EA0322D9
:1004400042EA024200F07CB870477047704770473C
:1004500010B500F095F8006810BD10B5044600F026
:100460008FF8046010BD2DE9F0470D46994692467D
:10047000044600F124080168880604D5E06921F0EB
:100480001001216000E00120A84201DD471B00E0CF
:100490000027A1697A1902EB0900081AA0612078E7
:1004A000C00602D42046AFF30080002608E0D4E95D
:1004B00001211AF806009047206A401C761C206231
:1004C0004E45F4DB2078C0060AD52046AFF3008005
:1004D00006E0D4E9012130209047206A401C2062C8
:1004E000381EA7F10107F4DC07E0D4E9012118F870
:1004F00005009047206A401C2062281EA5F10105D6
:10050000F3DC2046AFF300802078000602D50220FD
:10051000BDE8F0870120FBE7074B70B50D467B4433
:1005200000F037F80446284600F046F810B14FF0C6
:10053000FF3070BD204670BD333700004FF0000221
:100540000429C0F0128010F0030C00F03B80CCF1C5
:10055000040CBCF1020F18BF00F8012BA8BF20F853
:10056000022BA1EB0C0100F02DB85FEAC17C24BF87
:1005700000F8012B00F8012B48BF00F8012B704751
:1005800000487047AC01002001694A1C02610878EC
:10059000704700B58FB0CDE90131002105910549C3
:1005A0007944CDE9031011466846FFF77DFE0FB090
:1005B00000BD0000E5FFFFFF007B00F080007047FA
:1005C0004FF0000200B5134694469646203922BFEC
:1005D000A0E80C50A0E80C50B1F12001BFF4F7AF37
:1005E000090728BFA0E80C5048BF0CC05DF804EB19
:1005F000890028BF40F8042B08BF704748BF20F887
:10060000022B11F0804F18BF00F8012B704700003B
:1006100000487047AC0100207546FFF7F9FFAE4671
:1006200005006946534620F00700854618B020B5FE
:10063000FFF7DEFDBDE820404FF000064FF0000759
:100640004FF000084FF0000B21F00701AC46ACE87A
:10065000C009ACE8C009ACE8C009ACE8C0098D46E7
:10066000704710B50446AFF300802046BDE8104047
:10067000FFF7AABD21B1826842F00102826003E067
:10068000826822F0010282607047000010B50446C3
:100690001248844208D10121401501F081FA00215D
:1006A000601501F07DFA17E00D48844208D1012160
:1006B000001501F075FA0021201501F071FA0BE028
:1006C0000848844208D10121C80301F069FA0021D9
:1006D0004FF4004001F064FA10BD00000024014016
:1006E00000280140003C0140014600208A6802F0D9
:1006F00004020AB1012000E00020704701460020FA
:100700008A6802F008020AB1012000E00020704768
:1007100030B502460020002350680F4C20400D7970
:100720000C6844EA05242043506090680B4C20403C
:10073000D1E902542C434D7944EA450420439060AA
:10074000D06A20F470000C7C641EE4B2234340EABB
:100750000350D06230BD0000FFFEF0FFFDF7F1FF57
:10076000816841F008018160704721B1826842F4DC
:10077000A002826003E0826822F4A00282607047D7
:10078000816841F0040181607047000010B50120CC
:100790000549086000200549C1F8980140F6AC51B0
:1007A000034801F060FE10BD940121420000214287
:1007B0000004004000BFFEE77047000070B50A204B
:1007C00002F078FD4FF4806000F00EF938B300219C
:1007D000134801F04AFE0121114801F0DEFC00BF80
:1007E0004FF480610F4800F0A3FA0028F8D10021EF
:1007F0000B4801F0D2FC0A4801F0FCFC4FF4AA714E
:1008000000FB01F5284605F083FA0446064905F089
:1008100081F9064908604FF4806000F0DFF870BD90
:10082000002C01400008014000004843D000002097
:1008300010B5202000F0D8F800287AD04A48006887
:10084000002876D1202000F0C9F801F023FA4749AA
:100850000860474A4749484803F02CFB474A484943
:10086000484800F0D1FB484A4849494800F0A4FBF9
:100870004448B0F9000005F04BFA044622463D48D2
:1008800001684448006802F041F84349086037486D
:10089000006801F0C3FF41490860414935480068DC
:1008A00005F062FB09D23F493248006805F05CFA66
:1008B00003D23D483749086041E03C492D48006873
:1008C00005F052FB09D23A492A48006805F04CFA73
:1008D00003D238482F49086031E03749254800687D
:1008E00005F042FB09D235492248006805F03CFA80
:1008F00003D233482749086021E032491D48006887
:1009000005F032FB05D230491A48006805F02CFA90
:100910000BD32E491748006805F026FA0AD22C4955
:100920001448006805F020FB04D22A4819490860E1
:1009300005E017E0002018490860184908601648CB
:10094000006816490968084423490860084600F011
:10095000A7FA21480068404200F0B8FA05490D485E
:1009600001F034FA10BD000014812142240000205F
:1009700008000020040000200000002016000020D5
:100980001400002012000020100000200E000020A3
:100990000C00002098000020AC000020B0000020D7
:1009A0000000C8C200008CC20000AAC20000A0C1A2
:1009B00000002041000080C000008C420000C842BE
:1009C0000000AC4200002A4300003443000020C372
:1009D000000034C300002DC3180000200149086046
:1009E0007047000014040140014600200022074B1C
:1009F0001B6803EA0102054B14331B680B4013B15B
:100A00000AB1012000E0002070470000000401400E
:100A1000002123498279002A3AD00A4612680368E5
:100A20009A430B461A600A1D126803689A430B1D0D
:100A30001A60027911440A6803681A430A60184A66
:100A40000832126803689A43154B08331A601A1D5E
:100A5000126803689A43124B0C331A604279102AC9
:100A60000ED11A1F126803681A430D4B08331A601F
:100A70001A1D126803681A43094B0C331A600DE003
:100A80000749427911440A6803681A430A6005E07D
:100A9000027911440A6803689A430A6070470000AB
:100AA0000004014030B587B005460C460121042002
:100AB00001F056F80121082001F062F8C020ADF8DD
:100AC000180004208DF81B0006A9134800F05CF8FC
:100AD000ADF81050ADF80C400020ADF81200ADF8A4
:100AE0000E0003A90D4801F0EFFC00231A46032174
:100AF0000A4801F05EFB684601F0E6FB0A20ADF80B
:100B000008006946054801F089FB0121034801F00E
:100B100044FB07B030BD0000000C0140000800405D
:100B200010B500200549086001200549C1F8980169
:100B300040F6AC51034801F096FC10BD94012142EF
:100B4000000021420004004030B500228B071C0F3A
:100B50000F2303FA04F20B4B8C1053F82430934309
:100B6000084C8D1044F8253023468C1053F824305F
:100B70008C07240F00FA04F42343024C8D1044F830
:100B8000253030BD080001402DE9F0410246002526
:100B90000026002000230024002791F803C00CF059
:100BA0000F0591F803C00CF0100CBCF1000F03D03E
:100BB00091F802C04CEA050591F800C0BCF1000FA5
:100BC00031D0146800202BE04FF0010C0CFA00F338
:100BD000B1F800C00CEA03069E4220D183004FF01A
:100BE0000F0C0CFA03F7BC4305FA03FC4CEA0404AF
:100BF00091F803C0BCF1280F06D14FF0010C0CFA9C
:100C000000FCC2F814C00AE091F803C0BCF1480F20
:100C100005D14FF0010C0CFA00FCC2F810C0401CCA
:100C20000828D1D31460B1F800C0BCF1FF0F34DD47
:100C3000546800202EE000F1080C4FF0010808FA7B
:100C40000CF3B1F800C00CEA03069E4221D18300E8
:100C50004FF00F0C0CFA03F7BC4305FA03FC4CEA07
:100C6000040491F803C0BCF1280F05D100F1080C71
:100C700008FA0CF8C2F8148091F803C0BCF1480FD0
:100C800007D100F1080C4FF0010808FA0CF8C2F87F
:100C90001080401C0828CED35460BDE8F0810000CD
:100CA000F0B50A46002300240021002500F000468C
:100CB000B6F1004F02D11D4EF16901E01B4E716883
:100CC000C0F3034583B200F44016B6F5401F08D1C7
:100CD00021F07061154E766826F07066134F7E60C5
:100CE00012E000F48016B6F5801F06D1032606FA3E
:100CF00005F4A14341F0706106E0460D360103FAA8
:100D000006F6B14341F0706122B1460D360103FA97
:100D100006F6314300F00046B6F1004F02D1034E13
:100D2000F16101E0014E7160F0BD00000000014082
:100D30000246002093680B400BB1012000E0002028
:100D400070474161704701617047000010B50B4862
:100D5000006819380949086008460068B0F5117F35
:100D600002DA4FF4117008600448008881B24FF035
:100D7000804001F074FBFFF7D3FE10BD5C00002043
:100D800010B50B480068193009490860084600682A
:100D9000B0F57A7F02DD4FF47A700860044800886D
:100DA00081B24FF0804001F05AFBFFF7B9FE10BD51
:100DB0005C00002000BFFEE710B54FF480510948E9
:100DC000FFF7C1FF4FF400510648FFF7BCFF4FF497
:100DD00000510448FFF7B5FF4FF480510148FFF779
:100DE000B0FF10BD000C014010B54FF48051074812
:100DF000FFF7A9FF4FF400510448FFF7A2FF4FF49B
:100E000000510248FFF79FFF10BD0000000C014099
:100E100010B54FF480510448FFF795FF4FF480510F
:100E20000148FFF78EFF10BD000C01403EB505469E
:100E30000C460121C80200F0A3FE0020ADF802001C
:100E4000ADF80450ADF80040ADF80600694607481B
:100E500001F03AFB01221146044801F03EFA01225A
:100E60004021024801F039FA3EBD0000002C01404B
:100E700010B50A4800681938084908600846006833
:100E8000B0F5117F02DA4FF4117008600348008852
:100E900081B24FF0804001F0E2FA10BD5C0000200A
:100EA000084A01681268914202DD0649096801603A
:100EB000054A01681268914202DA03490968016033
:100EC000704700001C0000202000002070B5044680
:100ED000002C06DD01200B4908600B49C1F8A40174
:100EE00006E001200749086000200749C1F8A40175
:100EF000251E01DB284600E0684281B2034801F06C
:100F0000B0FA70BDA081214200802142000400405F
:100F100008B50121082000F033FE10208DF80300F1
:100F20004FF44070ADF8000003208DF802006946D0
:100F30000148FFF729FE08BD000C014008B501215A
:100F4000082000F01DFE10208DF803006020ADF891
:100F5000000003208DF8020069460248FFF714FEE6
:100F600008BD0000000801400EB50121092000F075
:100F700007FE48208DF803002020ADF80000032074
:100F80008DF8020069460B48FFF7FEFD05210120A0
:100F9000FFF7DAFD2020019001208DF80A000020E3
:100FA0008DF808000C208DF8090001A8FFF730FD2E
:100FB0000EBD0000000C01402DE9FC4104460D4629
:100FC00016466B4606223B21682000F0EFF90746E3
:100FD000BFB99DF801009DF8001040EA012000B261
:100FE00020809DF803009DF8021040EA012000B225
:100FF00028809DF805009DF8041040EA012000B209
:1010000030803846BDE8FC812DE9FC4104460D46A0
:1010100016466B4606224321682000F0C7F90746B2
:10102000BFB99DF801009DF8001040EA012000B210
:1010300020809DF803009DF8021040EA012000B2D4
:1010400028809DF805009DF8041040EA012000B2B8
:1010500030803846BDE8FC8110B500200E4908609C
:101060000E48006820F470400C490860084600688B
:1010700040F44050086000200949C1F88C0100F09C
:1010800011F801200449086000F00CF80020044920
:10109000C1F8900110BD000090812142000C014078
:1010A0000080214210B5022002F004F910BD0000BA
:1010B00008B50121092000F063FD01210A48FFF76E
:1010C000EFFD1820ADF8000010208DF8030003207C
:1010D0008DF8020069460548FFF756FD18210348C0
:1010E000FFF731FE08BD000000023000000C014097
:1010F00010B500200E4908600E48006820F47040CA
:101100000C4908600846006840F44050086001201F
:101110000949C1F88C01FFF7C5FF012004490860A7
:10112000FFF7C0FF00200449C1F8900110BD000086
:1011300090812142000C01400080214270B505469B
:1011400000241648006820F47040144908600846DE
:10115000006840F400400860002614E000201049B8
:101160000860FFF79FFF01200E49C1F8900160065B
:10117000040E0B488438006808B1601CC4B2FFF745
:1011800091FF701CC6B2082EE8DB15B9FFF7B0FF5F
:1011900001E0FFF761FF204670BD0000000C014038
:1011A000908121420080214270B5044612480068B7
:1011B00020F47040104908600846006840F4405030
:1011C000086000200D490860002512E0E0090B4985
:1011D000091F08606006040E01200949C1F890014A
:1011E000FFF760FF002005490860FFF75BFF681C00
:1011F000C5B2082DEADB70BD000C01409081214290
:101200000080214210B50E48006820F470400C495F
:1012100008600846006840F4405008600120094911
:1012200008600949C1F89001FFF73CFF002005491B
:101230000860FFF737FF00200349C1F8900110BD97
:10124000000C01408C8121420080214210B50E48E3
:10125000006820F470400C4908600846006840F4BB
:10126000405008600020094908600949C1F88C0114
:10127000FFF718FF0120054908600549C1F88C01F6
:10128000FFF710FF10BD0000000C014090812142CB
:101290000080214210B500241448006820F47040FA
:1012A000124908600846006840F4004008600120C8
:1012B0000F490860FFF7F6FE01200E49C1F89001C2
:1012C000FFF7F0FE07E0601CC4B2FA2C03DDFFF765
:1012D000BDFF012010BD0648803800680028F2D10B
:1012E0000349091D086000BFF4E70000000C01403D
:1012F0008C8121420080214210B5FFF7D9FE802168
:101300006B2000F0D7F8642001F0AEFF00216B20C5
:1013100000F0D0F8032000F08BF8002000F080F8F7
:10132000C82000F0AAF80021382000F0C3F80021FE
:101330006A2000F0BFF80021232000F0BBF88021D4
:10134000372000F0B7F8752000F013F80446682C39
:101350000BD101216B2000F0ADF800216C2000F0D2
:10136000A9F8642000F089F801E0012010BD0020F8
:10137000FCE770B50446FFF745FFD020FFF714FFE8
:10138000FFF788FF2046FFF70FFFFFF783FFFFF708
:1013900039FFD120FFF708FFFFF77CFF0020FFF7A0
:1013A000CDFE0546FFF752FF284670BD2DE9F041FE
:1013B00006460F4614461D46FFF724FF002141EA6A
:1013C0004601C8B2FFF7F0FEFFF764FF20B1FFF758
:1013D0003DFF0120BDE8F0813846FFF7E5FEFFF74D
:1013E00059FFFFF70FFF012101EB4601C8B2FFF7DC
:1013F000DBFEFFF74FFF0DE0012C04D10020FFF7CB
:101400009DFE287003E00120FFF798FE2870601E03
:10141000C4B26D1C002CEFD1FFF718FF0020D9E7F4
:1014200010B50446E006010E1C2000F043F810BD84
:1014300010B50446E006010E1B2000F03BF810BD7D
:1014400070B504460025BC2C01DB012510E0622CA0
:1014500001DB02250CE02A2C01DB032508E0142C1B
:1014600001DB042504E00A2C01DB052500E006254C
:1014700029461A2000F01EF870BD70B50446B4F578
:101480007A7F01DD4FF47A74042C00DA04244FF4DF
:101490007A7090FBF4F0401EC5B22946192000F086
:1014A00009F80546264604EBD671C1F34F00FFF755
:1014B000C7FF70BD70B505460C46FFF7A3FED020F0
:1014C000FFF772FEFFF7E6FE18B1FFF7BFFE01203F
:1014D00070BD2846FFF768FEFFF7DCFE2046FFF7E9
:1014E00063FEFFF7D7FE18B1FFF7B0FE0120EFE76C
:1014F000FFF7ACFE0020EBE72DE9F04105460E4674
:1015000017469846FFF77EFE002141EA4501C8B222
:10151000FFF74AFEFFF7BEFE20B1FFF797FE01205E
:10152000BDE8F0813046FFF73FFEFFF7B3FE002431
:101530000CE018F80400FFF737FEFFF7ABFE18B118
:10154000FFF784FE0120EBE7601CC4B2BC42F0DB75
:10155000FFF77CFE0020E3E700BFFEE7704700B521
:1015600085B04FF4A06000F081F817208DF81000CE
:1015700001208DF8130000208DF811008DF8120065
:1015800004A800F03BF827208DF8080001208DF812
:10159000090000208DF80A0001208DF80B0002A838
:1015A00000F02CF81C208DF8040001208DF80700B5
:1015B0008DF805008DF8060001A800F01FF828201E
:1015C0008DF80C0001208DF80F0002208DF80D0021
:1015D00001208DF80E0003A800F010F819208DF8F6
:1015E000000001208DF8030002208DF801008DF825
:1015F0000200684600F002F805B000BD70B5002199
:1016000000230F22C47804B3154C246804F4E0646A
:10161000C4F5E064210AC1F10403CA40447804FA25
:1016200003F184781440214309010E4C0678A1553A
:10163000047804F01F050124AC4005786D11AD005D
:1016400005F1E025C5F8004109E0047804F01F0524
:101650000124AC40044D0678761145F8264070BD53
:101660000CED00E000E400E080E100E0024901430D
:10167000024A1160704700000000FA050CED00E01E
:1016800070B5002418E004F1B000002100F0EEF97C
:101690000021084600F0EAF90021102000F0E6F9E8
:1016A000002505E00121002000F0E0F9681CC5B22A
:1016B000802DF7DB601CC4B2082CE4DB70BD000099
:1016C00008B50121082000F05BFA4FF44050ADF856
:1016D000000010208DF8030003208DF802006946F9
:1016E0003C48FFF751FA4FF440513A48FFF72BFBC3
:1016F0004FF4487001F0B8FD0021AE2000F0B6F9BB
:101700000021084600F0B2F90021102000F0AEF9E7
:101710000021402000F0AAF90021B02000F0A6F935
:101720000021812000F0A2F90021FF2000F09EF9A5
:101730000021A12000F09AF90021A62000F096F9DE
:101740000021A82000F092F900213F2000F08EF93E
:101750000021C82000F08AF90021D32000F086F98A
:101760000021084600F082F90021D52000F07EF922
:101770000021802000F07AF90021D82000F076F9CD
:101780000021052000F072F90021D92000F06EF947
:101790000021F12000F06AF90021DA2000F066F95A
:1017A0000021122000F062F90021DB2000F05EF938
:1017B0000021302000F05AF900218D2000F056F968
:1017C0000021142000F052F90021AF2000F04EF962
:1017D00008BD0000000C014070B504460D4605F13F
:1017E000B000002100F042F9102141EA141000215C
:1017F00000F03CF904F00F00002100F037F970BD53
:101800002DE9F04707460E469046994600250024EC
:10181000A8F12000C5B27F2F02DD0027B01CC6B2A0
:10182000B9F1100F24D131463846FFF7D5FF002417
:1018300008E004EB0511194A505C012100F016F98B
:10184000601CC4B2082CF4DB701CC1B23846FFF730
:10185000C3FF002409E004EB051108310F4A505C76
:10186000012100F003F9601CC4B2082CF3DB12E084
:1018700031463846FFF7B0FF00240AE005EB45018A
:10188000074A02EB4101085D012100F0EFF8601CFE
:10189000C4B2062CF2DBBDE8F0870000E26300086A
:1018A000BA6100082DE9F04104460F4615469846F6
:1018B00000260FE0AA5D434639462046FFF7A0FF09
:1018C00004F10800C4B2782C02DD0024B81CC7B2B1
:1018D000701CC6B2A85D0028ECD1BDE8F081000004
:1018E0002DE9FF4F85B0054691469A46129C00208F
:1018F00003900021484604F037FA10D223462D22E7
:1019000028460699FFF77CFF484604F069F821F065
:101910000041CDE9000103F037FB814605E0234695
:10192000202228460699FFF76BFFBB46584604F075
:1019300007FA4946029004F048FB0490AAF1060019
:1019400000F0FF0804EBD471491005EB8101C8B227
:1019500023462E2202940699FFF752FF204604EBFD
:10196000D07105EB6101CDB200263EE0A8EB060088
:10197000401EC1B20A2003F049FA009004F0E0F9D9
:1019800001460190484604F0C5F8029004F084F93D
:101990000A2190FBF1F201FB1200C7B2039898B93B
:1019A000A8F10100B0420FDD67B904EBD471491012
:1019B00001FB0651C8B22346202202940699FFF784
:1019C0001FFF10E00120039004EBD471491001FBCC
:1019D0000651C8B207F13001CAB2234602940699F3
:1019E000FFF70EFF00BF701CC6B24645BEDB1D49A7
:1019F000049804F0EDF9009004F04EF90A2190FBF0
:101A0000F1F201FB12003030C0B204EBD471491086
:101A100005EB8101CDE90104C8B22346019A06997C
:101A2000FFF7EEFE1049049804F0D2F9009004F09C
:101A300033F90A2190FBF1F201FB12003030C0B201
:101A400004EBD471491001EB81012944CDE9010473
:101A5000C8B22346019A0699FFF7D2FE09B0BDE845
:101A6000F08F0000000020410000C84270B504461D
:101A70000D461DB1E0B200F0B1FF02E0E0B200F0AF
:101A800097FF70BD30B589B005460C460121022094
:101A900000F066F801210C2000F072F818208DF893
:101AA00007008020ADF8040003208DF8060001A98E
:101AB0002148FFF769F818208DF803000120ADF8E0
:101AC000000003208DF8020069461C48FFF75CF80F
:101AD000ADF81C50ADF818400020ADF81A00ADF874
:101AE0001E0006A9164800F0EFFC6020ADF80800C3
:101AF0000120ADF80A000020ADF80E000220ADF87C
:101B0000100002A90E4800F0F1FB02A90C4800F0F9
:101B10004DFC08210A4800F03BFC0821084800F071
:101B200095FC0121064800F029FB0121044800F042
:101B300034FB09B030BD000000080140000C01403A
:101B4000000400407047000001460020034A50682E
:101B500020F44040084350607047000000100240ED
:101B600029B1064AD2690243044BDA6104E0034A10
:101B7000D2698243014BDA617047000000100240D5
:101B800029B1064A92690243044B9A6104E0034A70
:101B900092698243014B9A61704700000010024035
:101BA00029B1064AD2680243044BDA6004E0034AD2
:101BB000D2688243014BDA60704700000010024097
:101BC00030B500210022002400232D4D6D6805F062
:101BD0000C0121B1042905D0082923D105E0294DA4
:101BE000056022E0274D05601FE0254D6D6805F476
:101BF0007012234D6D6805F48034022505EB924286
:101C00001CB9214D554305600BE01D4D6D6805F471
:101C100000351DB11C4D5543056002E0194D55437B
:101C2000056002E0174D056000BF00BF144D6D68F0
:101C300005F0F0010909154D6B5C0568DD40456054
:101C40000F4D6D6805F4E061090A104D6B5C456845
:101C5000DD4085600A4D6D6805F46051C90A0B4D81
:101C60006B5C4568DD40C560054D6D6805F440411D
:101C7000890B074D6B5CC568B5FBF3F5056130BD9D
:101C80000010024000127A0000093D003C000020D4
:101C90004C00002005490888B0F5704F02DBA0F524
:101CA0007F40FF380021014A11807047240800401E
:101CB00010B50A48006819300849086008460068ED
:101CC000B0F57A7F02DD4FF47A700860034800882F
:101CD00081B24FF0804000F0C2FB10BD5C000020DC
:101CE000704710B500F002F810BD00000CB50020E0
:101CF000019000903348006840F48030314908601A
:101D000000BF3048006800F4003000900198401C8B
:101D10000190009818B90198B0F5A06FF1D1294849
:101D2000006800F4003010B10120009001E00020B4
:101D300000900098012843D12348006840F010002B
:101D4000214908600846006820F003000860084642
:101D5000006840F0020008601A484068194948606D
:101D60000846406848600846406840F48060486023
:101D70000846406820F47C1048600846406840F4FB
:101D8000E81048600846006840F08070086000BFB6
:101D90000C48006800F000700028F9D0094840683D
:101DA00020F00300074948600846406840F0020000
:101DB000486000BF0348406800F00C000828F9D1D3
:101DC0000CBD000000100240002002402DE9F0414F
:101DD00004460D462168286804F002F9074603F01E
:101DE0005BFF061E01DB304600E070420C2802DD7E
:101DF0000020FFF76BF8BDE8F081000000200349E8
:101E000008600349C1F8980170470000940121421D
:101E100000002142042808D14FF0E021096941F077
:101E200004014FF0E022116107E04FF0E021096961
:101E300021F004014FF0E02211617047704700006B
:101E400010B51348006840F00100114908600846C9
:101E50004068104908400E494860084600680E492D
:101E600008400B4908600846006820F4802008609C
:101E70000846406820F4FE0048604FF41F00886068
:101E8000FFF72FFF4FF000600449086010BD00000D
:101E9000001002400000FFF8FFFFF6FE08ED00E032
:101EA000F0B50C46154600220021068C4FF6FE7751
:101EB0003E400684028B018C4FF60C7632407E1C2D
:101EC00006EA03162E433243104EB0420ED0104E97
:101ED000B0420BD0B0F1804F08D00E4EB04205D0CA
:101EE0000D4EB04202D00D4EB04206D14FF6FD76F7
:101EF000314044F00106314305E04FF6F5763140BC
:101F000044F00106314302830184F0BD002C0140FE
:101F1000003401400004004000080040000C004074
:101F2000F0B50C461546002200210026078C4FF61E
:101F3000EF7C07EA0C070784028B018C4FF6FF77D2
:101F400007EA041640F6FF473A404FF6FF7707EAE4
:101F500003373A434FF6FF7707EA05273A43114F15
:101F6000B8420ED0104FB8420BD0B0F1804F08D01D
:101F70000E4FB84205D00E4FB84202D00D4FB842B6
:101F800006D14FF6DF77394046F01007394305E0B8
:101F90004FF65F77394044F01007394302830184DC
:101FA000F0BD0000002C014000340140000400405E
:101FB00000080040000C0040F0B50C461546002219
:101FC00000210026078C4FF6FF6C07EA0C070784F8
:101FD000828B018C4FF6FF7707EA04264FF60C77C9
:101FE0003A404FF6FF7707EA03172F433A43114F62
:101FF000B8420ED0104FB8420BD0B0F1804F08D08D
:102000000E4FB84205D00E4FB84202D00D4FB84225
:1020100006D14FF6FF57394046F48077394305E043
:102020004FF2FF57394044F480773943828301846B
:10203000F0BD0000002C01400034014000040040CD
:1020400000080040000C0040F0B50C461546002288
:1020500000210026078C4EF6FF7C07EA0C07078458
:10206000828B018C4FF6FF7707EA043640F6FF4774
:102070003A404FF6FF7707EA05273A434FF6FF77D6
:1020800007EA03373A43114FB8420ED0104FB84217
:102090000BD0B0F1804F08D00E4FB84205D00E4F94
:1020A000B84202D00D4FB84206D14DF6FF77394005
:1020B00046F48057394305E047F6FF57394044F46A
:1020C0008057394382830184F0BD0000002C014019
:1020D000003401400004004000080040000C0040B3
:1020E00010B50121044800F088F818B10121024818
:1020F00000F050F810BD0000002C014010B5012187
:10210000880700F07AF801282ED10121800700F01D
:1021100041F816480068401C144908604FF082419D
:102120001348006803F020FE12D201201149086014
:1021300000201149C1F8B0010E490C390860FEF7C2
:1021400025FB40F216314FF0804000F088F902E0A4
:1021500000200849086005480068192804D1FFF7E5
:102160004DFE00200149086010BD0000CC00002099
:10217000D0000020AC0121420000214221B10288A0
:1021800042F08002028004E002884FF67F731A401A
:1021900002807047CA430282704721B1028842F030
:1021A0000102028004E002884FF6FE731A400280AA
:1021B0007047F0B50C4615461E460021002200234C
:1021C0000189028B038C4FF6F877394021434FF693
:1021D000FC473A4040F201173A434FF6DD773B4067
:1021E0004FF6FF7707EA06172F433B43018102832F
:1021F0000384F0BD0146888C704730B5024600204C
:1022000000230024158A05EA0103958905EA0104E3
:1022100013B10CB1012000E0002030BD70B50546BF
:102220000C46244885420ED0234885420BD0B5F198
:10223000804F08D02148854205D02148854202D0F0
:102240002048854200D100E000BF208850B9238992
:10225000A28861882846FFF723FEE188284600F01F
:1022600006F925E0208804280AD12389A2886188FC
:102270002846FFF755FEE188284600F001F917E0EF
:10228000208808280AD12389A28861882846FFF778
:1022900093FEE188284600F000F909E02389A2882E
:1022A00061882846FFF7D0FEE188284600F0FEF856
:1022B00070BD0000002C01400034014000040040CB
:1022C00000080040000C00400021018041800121F5
:1022D00081800021C180018170471AB183890B433D
:1022E000838102E083898B438381704770B500242A
:1022F00000220023058C4FF6EF7635400584028CD2
:102300008388048B48F6FF752C404FF6FF452C4020
:102310000D884FF6FF7606EA05252C434FF6DF754C
:102320002A400D8906EA05152A434D8806EA051557
:102330002A43154DA84202D0144DA8421DD14FF694
:102340007F752A404D894FF6FF7606EA05152A4328
:102350004FF6BF752A408D8806EA05152A434FF6C9
:10236000FF352B404FF2FF752B408D8906EA85051E
:102370002B43CD8906EA85052B4383800483CD88D2
:102380000587028470BD0000002C0140003401402C
:102390000A460021018B4FF2FF7319404FF6FF737D
:1023A00003EA0223194301837047000070B500243B
:1023B00000220023058C4FF6FF6635400584028C11
:1023C0008388848B4FF68F752C404FF6FC752C401C
:1023D0000D882C434FF6FF552A400D894FF6FF76A6
:1023E00006EA05252A434D8806EA05252A43154DA8
:1023F000A84202D0144DA8421DD14FF2FF752A40C9
:102400004D894FF6FF7606EA05252A434FF6FF353C
:102410002A408D8806EA05252A434EF6FF752B4093
:102420004DF6FF752B408D8906EA05152B43CD89A6
:1024300006EA05152B4383808483CD888587028433
:1024400070BD0000002C0140003401400A4600210C
:10245000818B4FF6F7731940114381837047818652
:102460007047018770478187704781847047028B6E
:102470004FF6F3731A400283028B0A4302837047BC
:10248000028B4FF2FF331A400283028B4FF6FF7329
:1024900003EA01231A4302837047828B4FF6F373DA
:1024A0001A408283828B0A4382837047828B4FF269
:1024B000FF331A408283828B4FF6FF7303EA0123B6
:1024C0001A43828370470000002202881D4B984205
:1024D0000ED01D4B98420BD0B0F1804F08D01B4B53
:1024E000984205D01A4B984202D01A4B984204D118
:1024F0004FF68F731A404B881A43174B984207D0F8
:10250000164B984204D04FF6FF431A40CB881A432B
:1025100002808B8883850B8803850A4B98420BD0F9
:10252000094B984208D00E4B984205D00D4B98426B
:1025300002D00D4B984201D10B7A0386012383828E
:1025400070470000002C01400034014000040040AE
:1025500000080040000C0040001000400014004043
:1025600000400140004401400048014010B540F2E5
:102570002551384800F08FF8002869D040F22551E5
:10258000344800F06DF8334800F040F9C4B23248E6
:10259000008800F4004058BB2F48008800F48040B9
:1025A00060B10A2C03D000202B49088020E02A4883
:1025B000008840F400402849088019E00D2C06D11D
:1025C0002548008840F480402349088010E02248D4
:1025D0000088C0F30D0021490C541F480088401C9E
:1025E0001D49088008460088C72801DD00200880B2
:1025F000472C1CD008DC412C0DD0422C14D0432C8D
:1026000018D0452C23D109E0482C0AD0522C17D0E1
:102610005A2C1CD111E0FEF783FA18E0FEF7B6F849
:1026200015E0FEF793FB12E0FEF7AAFB0FE0FEF7C2
:102630001FFC0CE0FFF73CFB09E0FFF7DFFB06E0C7
:1026400040F216314FF08040FFF709FF00BF00BF96
:1026500010BD00000048004058000020D4000020B9
:1026600010B50022002340F66A14A14200D100BF39
:102670000A1201249440A3B2DC43048010BD21B1AE
:10268000828942F40052828104E082894DF6FF7310
:102690001A408281704770B502460024002300254D
:1026A000002040F66A16B14200D100BFC1F34215C6
:1026B00001F01F03012606FA03F3012D02D19689CA
:1026C000334006E0022D02D1168A334001E0968A9B
:1026D00033400C12012606FA04F41688344013B174
:1026E0000CB1012000E0002070BDF0B503460024CD
:1026F00000260025002040F66A17B94200D100BF2D
:102700001846C1F3421401F01F06012707FA06F527
:10271000012C01D10C3004E0022C01D1103000E07A
:1027200014301AB107682F43076002E00768AF430F
:102730000760F0BD2DE9F04786B005460E4600243F
:10274000A24600BFA1460027B08900B100BF2F46B6
:102750002C8A4CF6FF700440F08804432C82AC892C
:102760004EF6F3100440B08831890843718908435C
:102770000443AC81AC8A4FF6FF400440B089044367
:10278000AC8201A8FFF71CFA1F48874202D1DDF88E
:1027900010A001E0DDF80CA0A88900F4004040B1D1
:1027A0000AEBCA0000EB0A1031684900B0FBF1F8EF
:1027B00007E00AEBCA0000EB0A1031688900B0FBA1
:1027C000F1F86420B8FBF0F004012009642101FB5A
:1027D0001089A88900F4004040B1322000EBC90004
:1027E000B0FBF1F000F00700044308E0322000EBFA
:1027F00009106421B0FBF1F000F00F0004432C81BC
:1028000006B0BDE8F0870000003801400146888826
:10281000C0F30800704700BFFEE700002DE9F04755
:102820000446314D314804603148006803F070FAC5
:102830008146294603F0CCFA07462C48006803F08D
:1028400067FA814629464FF07E5003F0C9FB824665
:10285000494603F0BDFA8046394603F0EDF80646D6
:1028600003F01AFA23490860084600682049086006
:10287000214800681F49096808441F490860084644
:10288000006842F21071884201DD084608E01A48EB
:1028900000681A49884201DA084601E016480068D3
:1028A000154908600846006803F032FA814614486A
:1028B0000168484603F08CFA07460E48006803F0AA
:1028C00027FA81460F480168484603F081FA80469E
:1028D000394603F0B1F8064603F0DEF90A4908600C
:1028E00008460068BDE8F0873333333FC40000205A
:1028F000BC000020C8000020B8000020F0D8FFFF76
:10290000A8000020A4000020C00000202DE9F05FF6
:1029100005460E46144621460C48006803F058FA56
:1029200082463146284603F050FB8346084801683A
:10293000584603F04DFA8146514603F07DF8804633
:1029400003F0AAF907463846BDE8F09FA000002032
:102950009C0000202DE9F04105462C464FF48051A3
:102960001248FEF7EEF900261CE0274607F0800724
:10297000802F04D1B9010D48FEF7E5F904E04FF4CA
:1029800000510A48FEF7DDF96006040E4FF480514D
:102990000648FEF7D8F94FF480510448FEF7D1F904
:1029A000701CC6B2082EE0DBBDE8F081000C0140CF
:1029B00010B50446FEF700FA7820FFF7CBFFFEF7CC
:1029C00027FA0020FFF7C6FFFEF722FA2046FFF79E
:1029D000C1FFFEF71DFAFEF707FA10BD10B5044659
:1029E000FEF7EAF97820FFF7B5FFFEF711FA40206D
:1029F000FFF7B0FFFEF70CFA2046FFF7ABFFFEF73C
:102A000007FAFEF7F1F910BD490050EAC12018BFDE
:102A100004204A0D18BF40F0010040F2FF72B2EBF3
:102A2000515F08BF40F00200012808BF0520704731
:102A30002DE9F0414F1E00EBC7010446D1E900012A
:102A400015461E4637F006020DD02A46334602F0E0
:102A5000EDFC7F1E04EBC703D3E9002302F0C6FAA6
:102A600037F00602F1D1022F25D0042F13D0062F04
:102A700018BFBDE8F0812A46334602F0D7FCD4E9FE
:102A80000A2302F0B3FA2A46334602F0CFFCD4E917
:102A9000082302F0ABFA2A46334602F0C7FCD4E919
:102AA000062302F0A3FA2A46334602F0BFFCD4E91B
:102AB000042302F09BFA2A46334602F0B7FCD4E91D
:102AC000022302F093FA2A46334602F0AFFCD4E91F
:102AD0000023BDE8F04102F089BA012203F027BBD0
:102AE00002F084BA002213461046114602F02EBBB3
:102AF000024A0020110703F01ABB000001FDFFFF8E
:102B000030380A2801D2012070470020704700BFEA
:102B10007047000000B587B001210420FFF730F8AE
:102B200001214802FFF72CF81020ADF81800002012
:102B30008DF81B0006A91C48FEF726F84FF400404C
:102B4000FFF702F81948FDF7A1FD002001908DF86C
:102B500008008DF809004FF46020039000200490D5
:102B600001208DF8140001A91048FDF7D1FD0121C5
:102B70000E48FDF77FFD0D48FDF7F2FD00BF0B4845
:102B8000FDF7BCFD0028FAD10848FDF7F9FD00BFAC
:102B90000648FDF7A9FD0028FAD101210348FDF7F9
:102BA000E4FD07B000BD0000000801400024014022
:102BB0002DE9F04D8D4F21F0004A86B005460C46B8
:102BC000BA452ADBAAEB070028430AD08848824589
:102BD00001DC1AD1CDB106B02846BDE8F04DFFF7B3
:102BE0007CBF844A844B284602F020FC07460E46F0
:102BF000824A834B2846214602F018FC06B03A462A
:102C00003346BDE8F04D02F0F1B90120FDF725FC97
:102C100006B0BDE8F04DFFF765BF7A48824542DA5D
:102C2000BAF1795F0BDA2846FFF7EEFE042808BFF9
:102C3000FFF75EFF284606B02146BDE8F08D2A4624
:102C40000B46104602F0F2FB834602466E480E46E3
:102C50000B4606217844FFF7EBFE5A46334602F056
:102C6000E5FB804669488A465A4633460421784443
:102C7000FFF7DEFE5A46334602F0D8FB00223B4601
:102C800002F0B4F902460B464046514602F05EFAA5
:102C90002A46234602F0CAFB06B02A462346BDE870
:102CA000F04D02F0A3B9284624F0004100223D4631
:102CB0003B4602F0B9FC4FF0FF3203F038FA06460B
:102CC000024653480F460B4606217844FFF7B0FEF4
:102CD00032463B4602F0AAFBCDE900014D483246A0
:102CE0003B4604217844FFF7A3FE32463B4602F000
:102CF0009DFB00222B4602F079F983460291304673
:102D0000394602F0D7F8804643480D46504517DC57
:102D1000DDE900015A46029B02F018FA42462B46B2
:102D200002F084FB42462B4602F060F9012203F0D8
:102D3000FEF9304A304B02F069FD304A304B4CE02E
:102D40004FF0000A52460B46404602F04FF9CDE9DB
:102D5000031052462B461046194602F067FB3246D6
:102D60003B4602F061FCDDE9033202F0EFF9064672
:102D70000F46DDE900015A46029B02F0E7F983465F
:102D8000009101223046394603F0D1F9194A1A4B15
:102D900002F04AFC06460F4601224046294603F04F
:102DA000C6F95A46009B02F041FB32463B4602F010
:102DB0002DFD06460F4601225046294603F0B7F97D
:102DC0000E4DDFF858802A46434602F02DFC32466D
:102DD0003B4602F029FC2A46434602F025FC002C23
:102DE000D8BF81F0004106B0BDE8F08D0000F03F93
:102DF0000000F07F075C143326A6913C182D445444
:102E0000FB21F93F0000E03FD8490000EE490000F7
:102E100062490000784900003333EF3FFB21E93F6E
:102E20002DE9F84F04460D4621F00040009173490A
:102E3000814211DC7249884201DC06D12CB1204666
:102E40002946BDE8F84FFFF748BE6E48002DCCBFBD
:102E50006D496E49BDE8F88F6D49814211DD6D49BC
:102E60008142D8BF4FF0FF366DDD20462946FFF77F
:102E7000CBFD042808BFFFF73BFE20462946BDE8EE
:102E8000F88F6549654F25F00045814233DD64497F
:102E9000814219DD002632464FF080432046294604
:102EA00002F0A4F880468A4601222046294603F013
:102EB0003EF900223B4602F0A9FC4246534602F08E
:102EC00045F904460D463EE001260022BA463B463F
:102ED0002046294602F08AF880460F4600225346D3
:102EE0002046294602F092FC42463B4602F02EF96B
:102EF00004460D4627E04B4981421BDDDFF828A13F
:102F00000226002253462046294602F08FFA00226C
:102F10003B4602F06BF880460F460022534620469F
:102F2000294602F073FC42463B4602F00FF9044684
:102F30000D4608E0032622462B4600203B4902F0BE
:102F400005F904460D4622462B461046194602F066
:102F50006DFA8B46824602460B4602F067FA074638
:102F60000246334888460B4606217844FFF760FD49
:102F700052465B4602F05AFA82462E488B463A4643
:102F8000434605217844FFF753FD3A46434602F095
:102F90004DFA02460B46002E504659460CDA02F016
:102FA00025F822462B4602F041FA01B022462B4674
:102FB000BDE8F04F02F038BB02F018F822462B466D
:102FC00002F034FA1C4A7A4402EBC603D3E9002328
:102FD00002F01CFC22462B4602F018FC174A7A44E9
:102FE00002EBC603D3E9002302F01EFB009A002A7D
:102FF000B8BF81F00041BDE8F88F00000000104428
:103000000000F07F182D4454FB21F93FFB21F9BF4C
:103010000000DC3F0000203E0000F33F0000F03FD6
:103020000000E63F008003400000F83F0000F0BFD2
:103030007A47000038470000D64600009E46000050
:103040002DE9F04D9446CCF1000423F000464CEA03
:103050000404524F46EAD4749A46884621F000424E
:10306000BC4206D8454240EA050442EAD474BC4258
:1030700004D9BDE8F04D6246FFF732BDAAF14055D4
:10308000A5F17F6555EA0C040BD0022404EAAA746A
:10309000434DDFF810E144EAD87452EA000B04D043
:1030A0000CE0BDE8F04DFFF7BBBE002C14BF012CB7
:1030B000BDE8F08D022C30D0032C32D056EA0C0B38
:1030C0000AD0BE4220D1BA4209D126F0804622F071
:1030D00080423346114617E000291ADB25E0DFF86D
:1030E000C8B0FB44002C04BFDBE90001BDE8F08D53
:1030F000012C02BFDBE9000181F00041BDE8F08D49
:10310000022C0AD0032C0CD0BA4212D1B8F1000F15
:103110000BDA23482549BDE8F08D28462449BDE84F
:10312000F08D28467146BDE8F08D1D482149BDE867
:10313000F08D921B12153C2AC4BF19481D490EDCA4
:10314000BAF1000FBEBF12F13C0F0020014606DBB2
:10315000624601F0FBFF21F00041FFF761FE002C09
:1031600008BFBDE8F08D012C04BF81F00041BDE82F
:10317000F08D114A114B022C07D002F047FB2A4672
:10318000BDE8F04D0A4B02F041BB02F03FFB2A467E
:10319000BDE8F04D064B02F047BA00000000F07F9A
:1031A000182D4454FB2109C032460000FB21F9BF11
:1031B000FB210940FB21F93F075C143326A6A13C03
:1031C0002DE9F0410446E07800F0C006E07800F018
:1031D0003F05607800F0010098B1EF102846E9172C
:1031E00005EB5171C910A5EBC101491C01F0FF08A5
:1031F0000B48006820B10A484146026838469047AB
:1032000000BF607800F0080030B10548406818B190
:10321000B011034A516888470020BDE8F0810000E2
:103220009C01002010B56FF00400FEF7F3FD0A4882
:1032300000680A49B0FBF1F00949087008460078B7
:1032400000EB4001C1EBC0104FF6FF7101EAC00076
:103250000449088010BD00002800002000127A00F8
:1032600050000020520000200146114A12884A43B3
:103270004FF0E0235A6100229A611A46126942F027
:1032800001021A6100BF4FF0E022106900F0010254
:103290001AB100F48032002AF5D04FF0E022126912
:1032A00022F001024FF0E0231A6100229A61704778
:1032B000520000200146114A12784A434FF0E023A1
:1032C0005A6100229A611A46126942F001021A619B
:1032D00000BF4FF0E022106900F001021AB100F4C3
:1032E0008032002AF5D04FF0E022126922F001026C
:1032F0004FF0E0231A6100229A61704750000020CD
:1033000038B5044664B120208DF8000028208DF8DF
:10331000010030208DF8020038208DF8030004E011
:10332000A32204216846FDF787F86A46042140F687
:103330009E2001F02BFD01F0A3F938BD3EB50446F7
:1033400002208DF80000CA208DF80100E3208DF8DE
:10335000020009208DF803006A460421682001F06C
:1033600015FDA3208DF8000004F0400048B1C020F6
:103370008DF80100C8208DF80200C2208DF80300EE
:1033800006E0A3208DF801008DF802008DF80300FF
:1033900004F4C07048B1C4208DF80400CC208DF82E
:1033A0000500C6208DF8060006E0A3208DF8040075
:1033B0008DF805008DF80600A3208DF807008DF824
:1033C00008008DF809006A460A2140F6A72001F09E
:1033D000DDFC04F0030018B120208DF8000002E0AD
:1033E000D8208DF800006A46012140F6B62001F091
:1033F000CDFC04F0200018B1012000F0ADF802E08F
:10340000002000F0A9F804F4C07008B304F4807040
:1034100060B1B2208DF800008B208DF80100B6203D
:103420008DF802009B208DF803000BE0B0208DF892
:10343000000080208DF80100B4208DF8020090205B
:103440008DF803006A46042140F6A22001F09EFC9C
:1034500004F0010020B3F8208DF800006A46012135
:103460004FF40B6001F092FCFA21072000F0FCFA07
:10347000072000F0C3FA012000F0E3FA642000F016
:10348000C3FB4FF4FA7000F0D2FBC821304800F0C3
:1034900073FA282000F08CFA0A2000F09CFA08E069
:1034A000D8208DF800006A4601214FF40B6001F02E
:1034B0006DFC04F0020018B1D9208DF8000002E084
:1034C000D8208DF800006A46012140F23D7001F0DD
:1034D0005DFC04F0040018B1012000F069F802E07E
:1034E000002000F065F804F0100018B10120FFF78B
:1034F00007FF02E00020FFF703FF44F00800154932
:10350000488101F0BDF800201249887304F04000A2
:1035100018B10846807B801D887304F4C07020B108
:103520000C48807B801D0B49887304F0140020B187
:103530000848807B10300749887304F0030020B1ED
:103540000448807B001D0349887300203EBD0000B5
:1035500009E3CA029C0100203EB504466CB10EA1ED
:10356000D1E900208968CDE9002002916A4609214D
:103570004FF4976001F00AFC3EBD0AA2D2E90010A8
:103580009268CDE9010200916A4609214FF49760E3
:1035900001F0FCFBF0E70000B8AAB38DB4980D353C
:1035A0005D000000B8AAAAAAB088C3C5C700000081
:1035B00038B5044664B1C0208DF80000C2208DF8F3
:1035C0000100C4208DF80200C6208DF8030004E03D
:1035D0008B2204216846FCF72FFF6A46042140F63F
:1035E000982001F0D3FB01F04BF838BD10B5C8238B
:1035F0004FF48062024940F6F63000F0D5FE10BD6F
:10360000246A00082DE9F04F8DB00746884615461C
:103610009946DDE9166B0024002030806B49887BD9
:103620005A4605A900F08CFF18B1601E0DB0BDE828
:10363000F08F6648807A00F01400002867D09DF86B
:10364000140000069DF8151040EA01409DF8161080
:1036500040EA01209DF81710084328609DF81800E3
:1036600000069DF8191040EA01409DF81A1040EA42
:1036700001209DF81B10084368609DF81C0000069F
:103680009DF81D1040EA01409DF81E1040EA0120FF
:103690009DF81F100843A8609DF8200000069DF8C3
:1036A000211040EA01409DF8221040EA01209DF8D7
:1036B00023100843E86004F11000C4B22868001425
:1036C0000190686800140290A86800140390E868EC
:1036D0000014049001984043029901FB01000399F2
:1036E00001FB0100049901FB010ABAF1706F02DBD2
:1036F000BAF1885F05DD00F0C3FF00203080401E76
:1037000094E7B6F9000040F48070308000BF2F4885
:10371000807A00F0400020B305A9601C085C095DB8
:1037200040EA012000B2A8F8000005A9E01C095CED
:1037300005AAA01C105C41EA002000B2A8F8020013
:1037400005A9601D095C201D105C41EA002000B243
:10375000A8F80400A01DC4B2B6F9000040F00800AB
:1037600030801A48408900F4C07008B305A9601C75
:10377000085C095D40EA012000B2388005A9E01C20
:10378000095C05AAA01C105C41EA002000B2788008
:1037900005A9601D095C201D105C41EA002000B2F3
:1037A000B880A01DC4B2B6F9000040F070003080AF
:1037B0000648807A00F0030018B105A90819FFF740
:1037C000FFFC484600F03CFB00202FE79C01002056
:1037D00030B585B0044616A207CA02AB07C3C82C91
:1037E00003DD4FF0FF3005B030BDC82090FBF4F092
:1037F000401E85B2280A8DF80000E8B28DF801005D
:103800006A46022140F2162001F0C0FA10B14FF0D2
:10381000FF30E8E702AA0C2140F6C12001F0B6FA19
:1038200010B14FF0FF30DEE7044884810020DAE772
:10383000FEF2ABC4AAF1DFDFBBAFDFDF9C010020EB
:1038400010B586B0044647A00068039046A0006803
:10385000029046A00068019045A00068009004F026
:10386000030003A9085C8DF8140003A8C4F3C10188
:10387000405C8DF8150003A8C4F38111405C8DF8FD
:10388000160004F0030002A9085C8DF8100002A8DD
:10389000C4F3C101405C8DF8110002A8C4F381118A
:1038A000405C8DF8120005AA032140F2264001F089
:1038B0006DFA18B14FF0FF3006B010BD04AA032115
:1038C00040F22A4001F062FA10B14FF0FF30F3E706
:1038D000019805900098049004F0040058B19DF8F8
:1038E000140040F001008DF814009DF8100040F025
:1038F00001008DF8100004F0200058B19DF815006B
:1039000040F001008DF815009DF8110040F0010015
:103910008DF8110004F4807058B19DF8160040F045
:1039200001008DF816009DF8120040F001008DF89E
:10393000120005AA03214FF4886001F027FA10B1A4
:103940004FF0FF30B8E704AA032140F2314001F004
:103950001DFA10B14FF0FF30AEE706480481002099
:10396000AAE700004CCD6C000CC92C00365676003E
:10397000264666009C010020F8B505460E464FF429
:103980007A7095FBF0F000FB06F4200E8DF8000035
:10399000200C8DF80100200A8DF80200E0B28DF8AD
:1039A00003006A4604214FF4AE7001F0EFF9F8BD50
:1039B00038B50446052094FBF0F084B220128DF84F
:1039C0000000E0B28DF801006A4602214FF4AD70AC
:1039D00001F0DCF938BD38B50446052094FBF0F061
:1039E00084B220128DF80000E0B28DF801006A4622
:1039F00002214FF4AC7001F0C9F938BD38B5044666
:103A00000020009004F0010020B19DF8000040F07B
:103A10003000009004F0020020B19DF8000040F05A
:103A20000C00009004F0040020B19DF8000040F06C
:103A3000030000906A4601214FF4A47001F0A6F93A
:103A400038BD38B50446012C01DA012402E0042C0B
:103A500000DD0424601EC0B200906A46012140F2DD
:103A60004F1001F093F938BD2DE9FC4706460F468B
:103A700006F0070010B1B7F5C86F03DD4FF0FF3057
:103A8000BDE8FC87384602F05BF98146594902F0EF
:103A900041F88046684600F069FB9DF80000022866
:103AA00006D0042816D0082826D0102848D135E0A2
:103AB0004FF08D41404602F08BF9814602F008F943
:103AC00084B24D49404602F083F9814602F000F984
:103AD00085B238E04FF08C41404602F079F98146DA
:103AE00002F0F6F884B24549404602F071F9814689
:103AF00002F0EEF885B226E04FF08B41404602F02E
:103B000067F9814602F0E4F884B23D49404602F08C
:103B10005FF9814602F0DCF885B214E04FF08A418B
:103B2000404602F055F9814602F0D2F884B2354998
:103B3000404602F04DF9814602F0CAF885B202E033
:103B40004FF0FF309CE700BF20128DF80400E0B278
:103B50008DF8050028128DF80600E8B28DF80700F0
:103B600006F00100A0B101AA02214FF4EA7001F0B1
:103B70000DF910B14FF0FF3082E70DF1060202217E
:103B80004FF4927001F002F910B14FF0FF3077E777
:103B900006F00200A0B101AA02214FF4EC7001F07E
:103BA000F5F810B14FF0FF306AE70DF1060202217F
:103BB0004FF4947001F0EAF810B14FF0FF305FE776
:103BC00006F00400A0B101AA02214FF4EE7001F04A
:103BD000DDF810B14FF0FF3052E70DF1060202217F
:103BE0004FF4967001F0D2F810B14FF0FF3047E774
:103BF000002045E700004843000040460000C04563
:103C0000000040450000C04438B50446052094FB40
:103C1000F0F085B228128DF80000E8B28DF80100AE
:103C20006A4602214FF4EF7001F0B0F838BD38B5A4
:103C30000446052094FBF0F085B228128DF80000B0
:103C4000E8B28DF801006A4602214FF4ED7001F0F0
:103C50009DF838BD00BF054A128802F04002002AD4
:103C6000F9D0C2B2014B1B1D1A80704700480040BA
:103C700010B50446204600F00FF80346E01C00F0A3
:103C80000BF843EAC00083B2A01D00F005F843EA38
:103C9000801083B2184610BD014691F90020002A19
:103CA00001DD00201EE091F90020002A01DA042045
:103CB00018E091F90120002A01DD012012E091F9BC
:103CC0000120002A01DA05200CE091F90220002AE7
:103CD00001DD022006E091F90220002A01DA062027
:103CE00000E007207047000008B5FDF738FCFFF73B
:103CF00099FA4FF4165001F003F9FDF7E1FCFDF7D6
:103D0000BFFCFEF707FFFDF703F9FDF717F90021E8
:103D100041F61F40FDF7B6FE41F61F4142F20E701C
:103D2000FDF784F800214FF6FF70FCF7BBFE10236F
:103D300028A204211920FDF7B5FDFDF7DDFA05E005
:103D4000102327A204211920FDF7ACFD00F0C4F9CF
:103D50000028F5D1102326A204211920FDF7A2FD89
:103D60004FF4C870FFF780FAFDF7FEF8FDF788FC06
:103D7000102322A200210846FDF794FD102324A25F
:103D800003210020FDF78EFD102326A2062100202E
:103D9000FDF788FD1DE01020092300902548002133
:103DA00002683720FDF79CFD2348006801F026FBE0
:103DB00005460022214B01F039FB074601F0E4F8EB
:103DC0000446102009232246032100903720FDF7E6
:103DD00087FDE0E74D5055363035302E2E2E000051
:103DE0004D505536303530204572726F72000000EC
:103DF0004D505536303530204F4B2100526F6C6C92
:103E0000203A2020202020202020204300000000F5
:103E100053706565643A2020202020202020205205
:103E20002000000020207869616F6361696E69611C
:103E30006F00000004000020240000200000D03F9C
:103E40007047000070B50446002624F001041848AD
:103E500090F8240008B1002070BD1548807A10B990
:103E60004FF0FF30F8E71248057C807A2040104977
:103E700008740846007CA04202D04FF0FF3600E0F4
:103E8000002614B90A48007D18B1012000F0CAFFCD
:103E900002E0002000F0C6FF3CB100F0F1FB20B1D1
:103EA000034805744FF0FF30D6E73046D4E70000F2
:103EB000600000202DE9F04F99B004460D461646EB
:103EC0004FF07E574FF000084FF000094FF0000A06
:103ED00012A813A918AB0EAACDE9001014A916A8B0
:103EE000FFF790FB18B1012019B0BDE8F08FBDF8C5
:103EF0004C0000F4807000287ED00E9801F008FF7E
:103F000083464FF09D4101F005FE07460F9801F0F2
:103F1000FFFE83464FF09D4101F0FCFD8046109866
:103F200001F0F6FE83464FF09D4101F0F3FD81461E
:103F3000119801F0EDFE83464FF09D4101F0EAFD3E
:103F4000824639464FF0804001F042FF49460590D5
:103F500001F03EFF414607904FF0404001F038FF2E
:103F60005146059001F034FF0690079901F064FD79
:103F7000834601F035FDCDE90801FEF719FE4FF04B
:103F80006632544BCDE90A0101F050FACDE90C013B
:103F900000F0FAFF206049464FF0804001F018FF22
:103FA0004946029001F014FF414604904FF0404012
:103FB00001F00EFF4146029001F00AFF03900499C0
:103FC00002F00EF883464FF07E5101F035FD05906A
:103FD00001F006FDCDE9080139464FF0804001F0BF
:103FE000F7FE4146039001F0F3FE494604904FF07E
:103FF000804001F0EDFE00E068E05146039001F0E2
:10400000E7FE8346049901F017FD059001F0E8FCF6
:10401000CDE90601DDE90823FFF712F84FF066321B
:104020002C4BCDE90A0101F001FACDE90C0100F0B9
:10403000ABFF28605146504601F0CAFE4946049045
:10404000484601F0C5FE41460390404601F0C0FEDF
:1040500039460190384601F0BBFE0090019901F00D
:10406000EBFC0290039901F0BBFF8346049901F039
:10407000B7FF059001F0B4FCCDE908015146384680
:1040800001F0A6FE49460490404601F0A1FE0390CF
:10409000049901F0D1FC4FF08041059001F098FEA9
:1040A000834601F09DFCCDE90601DDE90823FEF71A
:1040B000C7FF4FF06632074BCDE90A0101F0B6F9B0
:1040C000CDE90C0100F060FF306001E002200BE759
:1040D000002009E766A64C4070B50024FCF7E8FF15
:1040E00000F06AF800283AD1782000F0E7FDC4B269
:1040F0000CB1012070BD7820FFF7A4FEC4B20CB152
:104100000220F7E7642000F08BFDC4B20CB103205D
:10411000F0E7FFF76BFAC4B20CB10420EAE71248EB
:10412000FFF7A6FD0546FFF78BFBC4B20CB10520D7
:10413000E0E740F27310FFF701F9C4B20CB10620BA
:10414000D8E76420FFF744FBC4B20CB10720D1E7E5
:10415000012000F061FCC4B21CB10920CAE70A20AA
:10416000C8E70020C6E700008C0000200146114887
:10417000407A30B1012807D0022808D003280CD19A
:1041800008E0022008700BE00420087008E0082016
:10419000087005E01020087002E04FF0FF30704713
:1041A00000BF0448C07C18B108784006000E0870B3
:1041B0000020F4E7600000201CB580208DF800008E
:1041C000654A1268917C644A526810786B460122F5
:1041D000FDF792F910B14FF0FF301CBD6420FFF7DE
:1041E00043F800208DF800005B4A1268917C5A4A1F
:1041F000526810786B460122FDF77EF910B14FF03E
:10420000FF30EAE7544A1268917D534A52681078A9
:104210006B460622FDF7CAF810B14FF0FF30DCE71D
:104220009DF80500C007400F9DF8031001F0010143
:1042300040EA41009DF8011001F0010140EA01044B
:1042400094B1012C03D101214348C17431E0022C07
:1042500003D100214048C1742BE021463FA0FBF769
:10426000DBFF4FF0FF30B8E73B4A1268D1783A4A9B
:10427000526810786B460122FDF798F810B14FF0A4
:10428000FF30AAE79DF8000000F00F042CB93D486C
:10429000FBF7C2FF4FF0FF309FE7042C06D13AA096
:1042A000FBF7BAFF01212C48C17402E000212A4823
:1042B000C174FF2128488172FF2027490872FF211D
:1042C00025484172C1724FF6FF71C181FF2101740F
:1042D00081740121017380F82210002180F82310DD
:1042E000417501751630016041608160163880F8B3
:1042F000241080F82510C1844FF4FA6000F0D4FB3C
:1043000010B14FF0FF3068E7022000F09DFA10B1C5
:104310004FF0FF3061E72A2000F040FC10B14FF071
:10432000FF305AE7322000F07BFC10B14FF0FF3035
:1043300053E70020FFF786FD10B14FF0FF304CE748
:10434000002000F0C3FA10B14FF0FF3045E7002025
:1043500000F0B4FC002040E760000020556E73754B
:1043600070706F7274656420736F667477617265C4
:104370002070726F64756374207265762025642ED8
:104380000A0000002077000848616C662073656EA3
:104390007369746976697479207061727420666FCC
:1043A000756E642E0A0000002DE9F04385B00546C5
:1043B0000E4690469946294890F8250020B14FF0C6
:1043C000FF3005B0BDE8F08316B94FF0FF30F8E7D5
:1043D000002423E0281B102801DD102000E0281B0A
:1043E00087B232193946204600F0D0FC10B14FF0A8
:1043F000FF30E6E701AA3946204600F001F910B186
:104400004FF0FF30DDE730193A4601A9FBF7E8FF2E
:1044100010B16FF00100D4E7E01984B2AC42D9DBEF
:104420004FEA28208DF8000008F0FF008DF8010009
:104430000A4A1268917E094A526810786B46022235
:10444000FDF75AF810B14FF0FF30BAE701210348E9
:1044500080F82510A0F826900020B2E76000002028
:1044600038B50446282C02DD4FF0FF3038BDDCB9EA
:10447000002000F05DFB00208DF8000007208DF883
:1044800001002E4A1268917C2C4A526810786B46C3
:104490000222FDF731F810B14FF0FF30E6E70021BE
:1044A000264801750020E1E7012000F041FB2020B3
:1044B0008DF80000012C06D100208DF801000520A8
:1044C00000F06CFB17E0052C06DC01208DF80100E4
:1044D000052000F063FB0EE0142C06DC02208DF8B2
:1044E00001000A2000F05AFB05E003208DF80100CE
:1044F000142000F053FB9DF80100072101EB801010
:10450000C0B28DF801000D4A1268917C0B4A5268C6
:1045100010786B460222FCF7EFFF10B14FF0FF302E
:10452000A4E708210548817200210173012101756A
:104530000020FFF787FC002098E7000060000020C3
:10454000F8B504460F4616462C4890F8240010B9DA
:104550004FF0FF30F8BD2948807A10B94FF0FF3096
:10456000F8E7264A1268917A244A526810786B4616
:104570000222FCF71BFF10B14FF0FF30EAE79DF875
:1045800001009DF8001040EA0125A54203DA002051
:104590003070401EDEE7194840684088B5EB600F78
:1045A00017DD164A1268517C144A526810786B461F
:1045B0000122FCF7FBFE10B14FF0FF30CAE79DF877
:1045C000000000F0100020B100F05AF86FF0010078
:1045D000C0E7E2B2094B1B68D97A084B5B681878D0
:1045E0003B46FCF7E3FE10B14FF0FF30B2E795FB1E
:1045F000F4F0401E30700020ACE7000060000020A6
:10460000F8B504460D46164616B94FF0FF30F8BD12
:104610001A48807A10B94FF0FF30F8E720128DF871
:104620000000E0B28DF801009DF801002844134914
:1046300049684989884202DD4FF0FF30E7E70F4AB9
:104640001268117E0D4A526810786B460222FCF700
:1046500053FF10B14FF0FF30D9E7EAB2074B1B68A8
:10466000597D064B5B6818783346FCF79FFE10B106
:104670004FF0FF30CBE70020C9E7000060000020CA
:1046800008B57048807A10B94FF0FF3008BD00209F
:1046900000906C4A1268D17B6A4A526810786B4667
:1046A0000122FCF729FF10B14FF0FF30EEE7654A19
:1046B00012685179634A526810786B460122FCF700
:1046C0001BFF10B14FF0FF30E0E75E4A126811792E
:1046D0005C4A526810786B460122FCF70DFF10B15E
:1046E0004FF0FF30D2E7574890F82400002853D00D
:1046F0000C200090534A12681179524A526810787F
:104700006B460122FCF7F8FE10B14FF0FF30BDE719
:104710003220FEF7A9FDC02000904A48807A00F0C0
:10472000010020B19DF8000040F020000090454AB3
:1047300012681179434A526810786B460122FCF7DF
:10474000DBFE10B14FF0FF30A0E73E48407C10B1D7
:104750000220009001E0002000903A4A1268D17BCC
:10476000384A526810786B460122FCF7C5FE10B13A
:104770004FF0FF308AE700200090324A12685179EA
:10478000304A526810786B460122FCF7B5FE0028CB
:1047900055D04FF0FF3079E704200090294A126885
:1047A0001179284A526810786B460122FCF7A4FE62
:1047B00010B14FF0FF3069E72248807C20B92148D2
:1047C000807A00F0010010B94020009001E06020E4
:1047D00000901C4A126811791A4A526810786B4688
:1047E0000122FCF789FE10B14FF0FF304EE7322076
:1047F000FEF73AFD1348407C10B10120009001E023
:10480000002000900F4A1268D17B0E4A526810783F
:104810006B460122FCF770FE10B14FF0FF3035E718
:10482000084A12685179074A52681078054B1033CC
:104830000122FCF761FE10B14FF0FF3026E70020A7
:1048400024E700006000002038B504461E48807A46
:1048500010B94FF0FF3038BD022C06D0042C07D021
:10486000082C08D0102C0CD108E0002000900BE0A0
:104870000820009008E01020009005E0182000902B
:1048800002E04FF0FF30E6E700BF0F48407A9DF8A6
:104890000010B0EBE10F01D10020DCE70A4A1268FA
:1048A000D179094A526810786B460122FCF724FE40
:1048B00010B14FF0FF30CEE79DF80000C110024864
:1048C00041720020C7E700006000002038B50446B0
:1048D0005048807CA04201D1002038BD002C46D039
:1048E0004C4A126811794B4A526810786B46012283
:1048F000FCF75CFD10B14FF0FF30EEE79DF80000D3
:1049000020F020000090434A12681179414A526811
:1049100010786B460122FCF7EFFD10B14FF0FF302D
:10492000DBE70320FEF7A0FC02200090394890F856
:10493000220020B19DF8000040F080000090354832
:1049400090F8230020B19DF8000040F03000009066
:10495000304A1268117D2F4A526810786B46012246
:10496000FCF7CAFD002851D04FF0FF30B5E7294AC7
:1049700012681179274A526810786B460122FCF7B9
:1049800015FD10B14FF0FF30A7E72248807A00F004
:10499000010028B19DF8000040F02000009004E0E4
:1049A0009DF8000020F0200000901A4A126811794A
:1049B000184A526810786B460122FCF79DFD10B131
:1049C0004FF0FF3089E70320FEF74EFC114890F8C6
:1049D000220010B18020009001E0002000900D48DE
:1049E00090F8230020B19DF8000040F030000090C6
:1049F000084A1268117D074A526810786B460122F6
:104A0000FCF77AFD10B14FF0FF3066E7014884747F
:104A1000002062E76000002038B50446214890F885
:104A20002400A04201D1002038BD24B31D4890F8D5
:104A3000250010B94FF0FF30F6E7002000F0F2F942
:104A40000020FFF743FF1749C88C00F0E9F8002069
:104A500000901449496808786B4601222321FCF72D
:104A60004BFD01210F4880F82410012000F0DAF9F5
:104A7000FFF706FE13E0002000F0D4F90948007C9F
:104A800000900849496808786B4601222321FCF709
:104A900033FD0021034880F82410FFF7F1FD0020CA
:104AA000C2E700006000002038B504461F48807A45
:104AB00010B94FF0FF3038BDFA2C09D0B4F5FA7FA9
:104AC00009D0B4F57A7F09D0B4F5FA6F0CD108E0BB
:104AD000002000900BE00820009008E010200090DB
:104AE00005E01820009002E04FF0FF30E3E700BF40
:104AF0000E48007A9DF80010B0EBE10F01D10020C4
:104B0000D9E70A4A12689179084A526810786B46C8
:104B10000122FCF7F1FC10B14FF0FF30CBE79DF81C
:104B20000000C010014908720020C4E760000020A6
:104B300038B50446184890F82300A04201D100205F
:104B400038BD14B13020009001E0002000901248E0
:104B5000807C20B19DF8000040F0020000900E48DB
:104B600090F8220020B19DF8000040F080000090F5
:104B7000094A1268117D084A526810786B46012272
:104B8000FCF7BAFC10B14FF0FF30D9E7024880F8CB
:104B900023400020D4E700006000002038B5044620
:104BA0001E48807A10B94FF0FF3038BDBC2C02DBB4
:104BB0000120009015E0622C02DB0220009010E042
:104BC0002A2C02DB032000900BE0142C02DB0420D3
:104BD000009006E00A2C02DB0520009001E0062090
:104BE00000900E48C07A9DF80010884201D1002044
:104BF000DBE70A4A12689178084A526810786B46D7
:104C00000122FCF779FC10B14FF0FF30CDE79DF8A1
:104C100000100248C1720020C7E7000060000020B9
:104C200038B504462448807A10B94FF0FF3038BDBB
:104C3000214890F8240010B14FF0FF30F7E71E48EC
:104C4000007D50B134B1282C04DCE0B2FFF708FC41
:104C50000020ECE70020FFF703FC042C01DA042419
:104C600004E0B4F57A7F01DD4FF47A744FF47A7082
:104C700090FBF4F0401EC0B200900F4A12685178C9
:104C80000D4A526810786B460122FCF735FC10B1D2
:104C90004FF0FF30CBE79DF80000401C4FF47A71D5
:104CA00091FBF0F081B20448C1810146C9894810E6
:104CB000FFF774FF0020BAE76000002038B5044613
:104CC00004F0700010B10120009005E014B1002044
:104CD000009001E0402000902B4A1268917C2A4A03
:104CE000526810786B460122FCF706FC20B10021C7
:104CF00025488172481E38BD9DF8000020F0400113
:104D0000214801730020009004F0400020B99DF874
:104D1000000040F00400009004F0200020B99DF84D
:104D2000000040F00200009004F0100020B99DF84F
:104D3000000040F00100009004F0080020B99DF848
:104D4000000040F0380000900F4A1268D17C0E4AF3
:104D5000526810786B460122FCF7CEFB20B100218F
:104D600009488172481EC6E724B1082C02D00020F1
:104D7000FFF7DEFE04488472002101753220FEF741
:104D800073FA0020B7E7000060000020F8B5044681
:104D90000D46164616B94FF0FF30F8BD1A48807A16
:104DA00010B94FF0FF30F8E720128DF80000E0B2A4
:104DB0008DF801009DF8010028441349496849898C
:104DC000884202DD4FF0FF30E7E70F4A1268117E9C
:104DD0000D4A526810786B460222FCF78DFB10B129
:104DE0004FF0FF30D9E7EAB2074B1B68597D064BFD
:104DF0005B6818783346FCF77FFB10B14FF0FF304B
:104E0000CBE70020C9E700006000002010B5024693
:104E1000012000E050430B1EA1F10104E1B2F9D1E1
:104E200010BD000038B50446214890F82400C0B1F8
:104E300014B10220009001E0002000901C4A12688A
:104E4000D17B1B4A526810786B460122FCF754FB59
:104E500010B14FF0FF3038BD9DF800101448417478
:104E600023E01348807A10B94FF0FF30F3E724B104
:104E70000F48407C08B10020EDE714B101200090FC
:104E800001E0002000900A4A1268D17B084A52686B
:104E900010786B460122FCF72FFB10B14FF0FF306A
:104EA000D9E79DF80010024841740020D3E70000C4
:104EB000600000202DE9F04106460F4600F0C0FBDF
:104EC000041E0D4618BF0120284320F00040C0F109
:104ED0007F6000F1E040C00F0ED0301C18BF0120F1
:104EE000384320F00040C0F17F6000F1E040C00F87
:104EF00004BF0120FBF7B1FA20462946BDE8F08146
:104F000010B586B0044601211C48FCF729FE4FF479
:104F10008060ADF8140003208DF8160018208DF87D
:104F2000170005A91648FBF72FFE4FF40060ADF8F7
:104F3000140004208DF8170005A91148FBF724FE82
:104F400001940020ADF80800ADF80A00ADF80C009F
:104F5000ADF810000C20ADF80E0001A90948FDF7CE
:104F6000E9FB012240F225510648FDF7BEFB012175
:104F70000448FDF784FB06B010BD000008000400E3
:104F8000000C01400048004021F00042A2F16052B4
:104F9000B2F5801F01F0004328BFD2F17F6C0BD91E
:104FA0005FEA001C43EAC20242EB507018BF704730
:104FB00028BF20F001007047B2F5801FBCBF184623
:104FC00070474FEA410C1CF5001F02D2084600F062
:104FD000C6BF70B500F0D4FA00000089FFF7F6BF35
:104FE0004FF00040A0F580007047000010B591EA36
:104FF000030F48BF83F0004300F11084841A71EB63
:10500000030C05D2121943EB0C03001B61EB0C01DE
:10501000DFF824E14FEA1154A4EB135C1EEA430FBE
:1050200018BF9EEA445F73D023EA0E03DCF1200E22
:1050300021EA045143F4801332D322FA0CFE10EB20
:105040000E0023FA0CFE41EB0E01CCF1200E03FA08
:105050000EFE10EB0E0051F10001B1F5801FCCF1F6
:10506000200E32D201EB045112FA0EF2BDE81040CC
:1050700058BF7047401C38BF5FEA420218BF7047F4
:10508000002814BF20F0010041F100014FEA410364
:1050900013F5001F38BF7047A1F1C04100F0BEBA40
:1050A000012A43EB0302ACF1200CDCF11F0E32BFEE
:1050B0004FF0000E23FA0CF310EB030041EB045108
:1050C000B4EB115FD0D0A1EB045101F58011490878
:1050D0005FEA300001EB04510ED350F1000038BFFD
:1050E00012FA0EFE08D1BDE81040C9E7401C38BFD7
:1050F0005FEA4202CAD1C3E7BDE810404FEA41036C
:1051000013F5001F38BF7047A1F1C04100F086BA07
:105110009EEA445F08D011EA5E0FBDE8104004BF6C
:1051200001F0004100207047BDE8104070B500F06C
:1051300027FA00BF64FBBE3E0000E0FF02494FF0CB
:10514000000000F0C2BF00BF0000F87F2DE9C041A1
:1051500030B4DFF8A0C23CEA111418BF3CEA1314C3
:1051600000F0EC8081EA03051CEA111444EAD574CE
:1051700018BF1CEA131500F0C780A4EB05044FF01C
:10518000004545EAC12145EAC32341EA505143EABB
:10519000525304F17F74994204F500344FEAC02061
:1051A0004FEAC22208BF904200F09C804FEA13658C
:1051B0000FF24016765D4FEA134506FB05F7C7F17F
:1051C000807706FB07F74FEAD737A7FB03687642DD
:1051D000C8F58038A7FB06CE38BFA8F1010807FB49
:1051E00008E64FF0000EA6FB028CE6FB03CEDCF1D6
:1051F000000CCEF1004E38BFAEF1010EA6FB0C58EC
:105200004FF000074FF00005E6FB0E87A1FB08C634
:10521000A0FB07CE16EB0E0645F10005E1FB076586
:1052200015F1E04E7EBFA4F580345FEA46066D417D
:1052300016F1800745F100054FEA17274FEA066689
:1052400047EA0567A6F1DE46B6F1805F4FEA15250D
:105250001FD9384624F0010C05EBC471BCF1FE6F78
:1052600001EB0C1102D8F0BCBDE8008124425CBF08
:1052700001F5801E9EEAC47F02D4F0BCBDE8008127
:10528000244238D4F0BCA1F1C041BDE8004100F097
:10529000C5B94FEAD22242EA43524FEAD323A7FBD1
:1052A00002864FEAD02040EA415007FB03661EEA1F
:1052B0000E0F4FEAD12105FB026658BFA6EB005640
:1052C000B6EB00564FEA520E4EEAC37E18EB0E0EB6
:1052D00056EB530EBDD518EB02085E417F1C55F10D
:1052E0000005B6E74FF480154FF000074FF00006B9
:1052F0004FF00008ADE7F0BC4FF0000001F1C041F5
:1053000001F00041BDE8008111EA0C1F0CEA131501
:1053100000D00CE013EA0C1F00F025804FF00000D5
:10532000F0BC81EA030101F00041BDE80081F0BC5E
:10533000BDE8004181EA030100F070B9F0BCBDE8AE
:10534000004170B500F01CF9097EFC3E00F007B882
:1053500081EA03014FF0000001F00041704781EA4B
:10536000030100F05BB9F0BCBDE800414FF0000064
:1053700021497047FFFDFBF9F7F5F4F2F0EEEDEB94
:10538000E9E8E6E4E3E1E0DEDDDBDAD8D7D5D4D343
:10539000D1D0CFCDCCCBCAC8C7C6C5C4C2C1C0BF8F
:1053A000BEBDBCBBBAB9B8B7B6B5B4B3B2B1B0AF95
:1053B000AEADACABAAA9A8A8A7A6A5A4A3A3A2A179
:1053C000A09F9F9E9D9C9C9B9A9999989797969534
:1053D00095949393929191908F8F8E8E8D8C8C8BD0
:1053E0008B8A898988888787868585848483838258
:1053F000828181800000FF070000F87F10F00042EA
:1054000048BF4042B0FA80F310FA03F10AD0C3F16A
:105410001D0303F580634FEA415002EB035202EB98
:10542000D12170474FF0000070470000DFF848C1FD
:1054300070B51CEA111E1EBF1CEA13159EEA0C0F64
:1054400095EA0C0F00F06F8081EA030423EA4C1305
:105450004EEAD47E21EA4C1141F4801143F48013CA
:10546000AE44A1FB024CA0FB0365AEF17F7E361972
:1054700055EB0C05A1FB034C4CF10003A0FB021CF7
:1054800016EB0C06654153F10003094218BF46F0C4
:10549000010613F4007F0BD14FEA03314FEA0530C8
:1054A000340341EA155140EA16506FF003020AE056
:1054B0004FEAC3214FEAC520F40241EA555140EAC0
:1054C00056506FF0020202EB2E4201EB025585EAC4
:1054D000CE710AD05FEA440C18BF24F0004450F1AA
:1054E000000041F1000120EAD47040F2FE7C6245E8
:1054F00000D270BDA84214BF4FF080444FF040442A
:10550000002E08BF0024BEF1806FA8BFA1F1C041EA
:10551000BDE8704080F282804FF0000001F1C04190
:1055200001F0004170479EEA0C0F0CEA131518BFFA
:1055300095EA0C0F06D04FF0000081EA030E0EF042
:10554000004170BD00F01CF88900013E00F007B872
:1055500000F009B84FEA430C5FEA5C5C08D081EACE
:10556000030100F05BB84FEA410C5FEA5C5CF6D1E6
:105570004FF00000014970470000FF070000F87F6E
:105580000EF1020E2EF0030E5EF8046B364205D4C7
:10559000012A43EB030515F5001F12D8012841EB42
:1055A000010C1CF5001F0CD80ED14FEAD17C15F56B
:1055B000001F0CEB4C0C0CF1020C08BF4CEBD37C25
:1055C00004E04FF0080C01E04FEAD37C0CEB4C05F3
:1055D00026FA05F606F00706B6F1040C06D20EEB25
:1055E000860CBDE870404CF0010C6047DFE80CF021
:1055F000090B02024FF000414FF00000A1F500211D
:1056000070BD19461046012851EB010418BFD4F5AE
:10561000001484BF002001F0004170BD0808A0F50F
:1056200000114FEA3101704791EA030F10B581F084
:1056300000413FF5E3AC83F0004300F0EFB8000019
:105640002DE9F04101F5801CBCF5001FC0F2C380BC
:105650004FEA115C21EA0C510CF1FD0C41F4801170
:105660005FEA5C0C0CF5C07C01D3400049413DA4CD
:10567000890241EA905187028E0E0A0CA45D04FB58
:1056800004F602FB06F6C6F14046A4FB0662F60DE0
:1056900046EA422606FB06F4A4FB01235242C3F16C
:1056A000404338BF5B1EA6FB02420024E6FB0324F6
:1056B000D20B42EA4446A6FB0623A1FB02E2A3FB6F
:1056C00007E4A4184FF0000252F10002E3FB01428C
:1056D0006442C2F1404E38BFAEF1010EA6FB042376
:1056E0004FF00002E6FB0E32A2FB03464FF000042F
:1056F000B61954F10004E2FB0264A1FB06E6A4FB28
:1057000007E816EB08064FF0000858F10008E4FB24
:1057100001687642C8F1405838BFA8F10108A2FBE1
:1057200006E4A3FB08E52D194FF0000454F1000432
:10573000E2FB0854A1FB05E6A7FB04E818EB06080A
:105740004FF0000656F10006E1FB048618F1200533
:1057500056F10006A809A8F11B08B10908F03F0896
:10576000B8F10A0F40EA86601CD901EB0C51BDE884
:10577000F08100BFFCF5EEE8E2DDD8D3CFCBC7C3A4
:10578000C0BDB9B6B4B1AEACA9A7A5A3A19F9D9B5E
:105790009A9896959392908F8D8C8B898887868521
:1057A00084838281A0FB006800FB01F208EB4208C1
:1057B000B8EB872807D5341858EB0104D5D5401C21
:1057C00051F10001D1E7341A78EB0104CDD4401E29
:1057D00071F10001C9E75FEA4C0C5FEA9C5C0DD1F6
:1057E00005D34FF0000001F00041BDE8F081BDE8B5
:1057F000F04170B5FFF7C4FE6DDBFFBEBDE8F041C0
:105800004FF00000004970470000F87F10B591EAA2
:10581000030F48BF83F000433FF5F0AB841A71EBF0
:10582000030C07D212198CF0004C43EB0C03001B45
:1058300061EB0C01DFF8A4E14FEA1154A4EB135C17
:105840001EEA430F18BF9EEA445F00F0B08023EACF
:105850006E03524221EA0451C3EB6E0338BF5B1E54
:10586000DCF1200E25D322FA0CFE10EB0E0043FAD9
:105870000CFE41EB0E01CCF1200E03FA0EFE10EBF4
:105880000E0051F10001CCF1200E29D412FA0EF2D3
:1058900001EB0451BDE8104058BF7047401C1CBFCD
:1058A000B2F1004F704700280CBF491C20F00100E6
:1058B000704712EB020E43EB030218BF4FF0010ECC
:1058C0004EEA4202ACF1200CDCF11E0E54D943FA30
:1058D0000CFE10EB0E0051F1FF31CCF11E0ED5D5B0
:1058E0000EF1010E12FA0EFE404141EB010101EBF7
:1058F000445C5FEA5C5C10D910EBDE7001EB045194
:1059000038BFBEF1004FBDE8104018BF70470028F7
:105910000CBF491C20F00100704730D24FEAD42C54
:1059200011F5001124F400641BD0B1FA81F20B3A96
:10593000A41AA41ED2F12003914030FA03F31943B4
:10594000904001EBCC71002C01EB0451BDE81040FC
:10595000A8BF704701F1C0414FF0000001F00041C5
:105960007047B0FA80F310FA03F100D110BDE41AC9
:10597000173C4805C90AE4E701EB045110BD491082
:1059800001EB0451BDE810404FEA300002E04FF057
:10599000000170474A0008BF0042F8D0B2F5001F6E
:1059A00028BF704701F000414FF0000070479EEAA9
:1059B000445F07D011EA5E0FBDE8104004BF00212C
:1059C00000207047BDE8104070B5FFF7D9FD00BF5B
:1059D00040DFF63E83F00041104670470000E0FFD4
:1059E00043004FEAD30C4FEA3C0C43401FBF400733
:1059F0000CF1605113F0FE4F70471CF0006F03D1A3
:105A000000200CF0004170470CF0004343EA507056
:105A100010B540EACC0000F05CFA00BF0000009234
:105A20004FEA0001FFF7FABD4FF000414FF00000D0
:105A3000A1F500217047000090EA010F48BF81F0F6
:105A4000004100F1D482421A3CBF801A89184FEA03
:105A5000D0524FF07F4C1CEA410FA2EBD15318BF3C
:105A60009CEA026F00F03B804FF0004C4CEA0020B3
:105A70004CEA012121FA03FC10EB0C0C1ED202F1BE
:105A8000FF325FEA1C2040EBC25038BF70471CF069
:105A90007F0F4FEA400C18BFBCF17F4F38BF7047F3
:105AA000C3F12003994008BF20F00100BCF17F4FF3
:105AB00038BF7047A0F1C04000F051BA4FEA3C0037
:105AC000000A40EBC25028BF1CF0FF0F4FEA400C09
:105AD000E6D018BFBCF17F4F38BF7047EAE79CEAB9
